{
  "_format": "hh-sol-artifact-1",
  "contractName": "YieldBearingALPVault",
  "sourceName": "contracts/staking/YieldBearingALPVault.sol",
  "abi": [
    {
      "inputs": [
        {
          "internalType": "address",
          "name": "_rewardRouter",
          "type": "address"
        },
        {
          "internalType": "address",
          "name": "_fsAlp",
          "type": "address"
        },
        {
          "internalType": "address",
          "name": "_glpManager",
          "type": "address"
        },
        {
          "internalType": "address",
          "name": "_ws",
          "type": "address"
        },
        {
          "internalType": "address",
          "name": "_esAmp",
          "type": "address"
        }
      ],
      "stateMutability": "nonpayable",
      "type": "constructor"
    },
    {
      "anonymous": false,
      "inputs": [
        {
          "indexed": true,
          "internalType": "address",
          "name": "owner",
          "type": "address"
        },
        {
          "indexed": true,
          "internalType": "address",
          "name": "spender",
          "type": "address"
        },
        {
          "indexed": false,
          "internalType": "uint256",
          "name": "value",
          "type": "uint256"
        }
      ],
      "name": "Approval",
      "type": "event"
    },
    {
      "anonymous": false,
      "inputs": [
        {
          "indexed": false,
          "internalType": "uint256",
          "name": "wsAmount",
          "type": "uint256"
        },
        {
          "indexed": false,
          "internalType": "uint256",
          "name": "alpGained",
          "type": "uint256"
        }
      ],
      "name": "Compound",
      "type": "event"
    },
    {
      "anonymous": false,
      "inputs": [
        {
          "indexed": true,
          "internalType": "address",
          "name": "sender",
          "type": "address"
        },
        {
          "indexed": true,
          "internalType": "address",
          "name": "owner",
          "type": "address"
        },
        {
          "indexed": false,
          "internalType": "uint256",
          "name": "assets",
          "type": "uint256"
        },
        {
          "indexed": false,
          "internalType": "uint256",
          "name": "shares",
          "type": "uint256"
        }
      ],
      "name": "Deposit",
      "type": "event"
    },
    {
      "anonymous": false,
      "inputs": [
        {
          "indexed": true,
          "internalType": "address",
          "name": "from",
          "type": "address"
        },
        {
          "indexed": true,
          "internalType": "address",
          "name": "to",
          "type": "address"
        },
        {
          "indexed": false,
          "internalType": "uint256",
          "name": "value",
          "type": "uint256"
        }
      ],
      "name": "Transfer",
      "type": "event"
    },
    {
      "anonymous": false,
      "inputs": [
        {
          "indexed": true,
          "internalType": "address",
          "name": "sender",
          "type": "address"
        },
        {
          "indexed": true,
          "internalType": "address",
          "name": "receiver",
          "type": "address"
        },
        {
          "indexed": true,
          "internalType": "address",
          "name": "owner",
          "type": "address"
        },
        {
          "indexed": false,
          "internalType": "uint256",
          "name": "assets",
          "type": "uint256"
        },
        {
          "indexed": false,
          "internalType": "uint256",
          "name": "shares",
          "type": "uint256"
        }
      ],
      "name": "Withdraw",
      "type": "event"
    },
    {
      "inputs": [
        {
          "internalType": "address",
          "name": "",
          "type": "address"
        },
        {
          "internalType": "address",
          "name": "",
          "type": "address"
        }
      ],
      "name": "allowance",
      "outputs": [
        {
          "internalType": "uint256",
          "name": "",
          "type": "uint256"
        }
      ],
      "stateMutability": "view",
      "type": "function"
    },
    {
      "inputs": [
        {
          "internalType": "address",
          "name": "spender",
          "type": "address"
        },
        {
          "internalType": "uint256",
          "name": "amount",
          "type": "uint256"
        }
      ],
      "name": "approve",
      "outputs": [
        {
          "internalType": "bool",
          "name": "",
          "type": "bool"
        }
      ],
      "stateMutability": "nonpayable",
      "type": "function"
    },
    {
      "inputs": [],
      "name": "asset",
      "outputs": [
        {
          "internalType": "address",
          "name": "",
          "type": "address"
        }
      ],
      "stateMutability": "view",
      "type": "function"
    },
    {
      "inputs": [
        {
          "internalType": "address",
          "name": "",
          "type": "address"
        }
      ],
      "name": "balanceOf",
      "outputs": [
        {
          "internalType": "uint256",
          "name": "",
          "type": "uint256"
        }
      ],
      "stateMutability": "view",
      "type": "function"
    },
    {
      "inputs": [],
      "name": "compound",
      "outputs": [],
      "stateMutability": "nonpayable",
      "type": "function"
    },
    {
      "inputs": [
        {
          "internalType": "uint256",
          "name": "shares",
          "type": "uint256"
        }
      ],
      "name": "convertToAssets",
      "outputs": [
        {
          "internalType": "uint256",
          "name": "",
          "type": "uint256"
        }
      ],
      "stateMutability": "view",
      "type": "function"
    },
    {
      "inputs": [
        {
          "internalType": "uint256",
          "name": "assets",
          "type": "uint256"
        }
      ],
      "name": "convertToShares",
      "outputs": [
        {
          "internalType": "uint256",
          "name": "",
          "type": "uint256"
        }
      ],
      "stateMutability": "view",
      "type": "function"
    },
    {
      "inputs": [],
      "name": "decimals",
      "outputs": [
        {
          "internalType": "uint8",
          "name": "",
          "type": "uint8"
        }
      ],
      "stateMutability": "view",
      "type": "function"
    },
    {
      "inputs": [
        {
          "internalType": "uint256",
          "name": "minUsdg",
          "type": "uint256"
        },
        {
          "internalType": "uint256",
          "name": "minGlp",
          "type": "uint256"
        }
      ],
      "name": "depositS",
      "outputs": [
        {
          "internalType": "uint256",
          "name": "shares",
          "type": "uint256"
        }
      ],
      "stateMutability": "payable",
      "type": "function"
    },
    {
      "inputs": [],
      "name": "esAmp",
      "outputs": [
        {
          "internalType": "contract IERC20",
          "name": "",
          "type": "address"
        }
      ],
      "stateMutability": "view",
      "type": "function"
    },
    {
      "inputs": [],
      "name": "fsAlp",
      "outputs": [
        {
          "internalType": "contract IERC20",
          "name": "",
          "type": "address"
        }
      ],
      "stateMutability": "view",
      "type": "function"
    },
    {
      "inputs": [
        {
          "internalType": "bool",
          "name": "maximise",
          "type": "bool"
        }
      ],
      "name": "getAum",
      "outputs": [
        {
          "internalType": "uint256",
          "name": "",
          "type": "uint256"
        }
      ],
      "stateMutability": "view",
      "type": "function"
    },
    {
      "inputs": [],
      "name": "glpManager",
      "outputs": [
        {
          "internalType": "contract IGlpManager",
          "name": "",
          "type": "address"
        }
      ],
      "stateMutability": "view",
      "type": "function"
    },
    {
      "inputs": [],
      "name": "gov",
      "outputs": [
        {
          "internalType": "address",
          "name": "",
          "type": "address"
        }
      ],
      "stateMutability": "view",
      "type": "function"
    },
    {
      "inputs": [],
      "name": "keeper",
      "outputs": [
        {
          "internalType": "address",
          "name": "",
          "type": "address"
        }
      ],
      "stateMutability": "view",
      "type": "function"
    },
    {
      "inputs": [],
      "name": "lastDeposit",
      "outputs": [
        {
          "internalType": "uint256",
          "name": "",
          "type": "uint256"
        }
      ],
      "stateMutability": "view",
      "type": "function"
    },
    {
      "inputs": [
        {
          "internalType": "address",
          "name": "",
          "type": "address"
        }
      ],
      "name": "maxDeposit",
      "outputs": [
        {
          "internalType": "uint256",
          "name": "",
          "type": "uint256"
        }
      ],
      "stateMutability": "pure",
      "type": "function"
    },
    {
      "inputs": [
        {
          "internalType": "address",
          "name": "",
          "type": "address"
        }
      ],
      "name": "maxMint",
      "outputs": [
        {
          "internalType": "uint256",
          "name": "",
          "type": "uint256"
        }
      ],
      "stateMutability": "pure",
      "type": "function"
    },
    {
      "inputs": [
        {
          "internalType": "address",
          "name": "owner",
          "type": "address"
        }
      ],
      "name": "maxRedeem",
      "outputs": [
        {
          "internalType": "uint256",
          "name": "",
          "type": "uint256"
        }
      ],
      "stateMutability": "view",
      "type": "function"
    },
    {
      "inputs": [
        {
          "internalType": "address",
          "name": "owner",
          "type": "address"
        }
      ],
      "name": "maxWithdraw",
      "outputs": [
        {
          "internalType": "uint256",
          "name": "",
          "type": "uint256"
        }
      ],
      "stateMutability": "view",
      "type": "function"
    },
    {
      "inputs": [],
      "name": "name",
      "outputs": [
        {
          "internalType": "string",
          "name": "",
          "type": "string"
        }
      ],
      "stateMutability": "view",
      "type": "function"
    },
    {
      "inputs": [
        {
          "internalType": "uint256",
          "name": "assets",
          "type": "uint256"
        }
      ],
      "name": "previewDeposit",
      "outputs": [
        {
          "internalType": "uint256",
          "name": "",
          "type": "uint256"
        }
      ],
      "stateMutability": "view",
      "type": "function"
    },
    {
      "inputs": [
        {
          "internalType": "uint256",
          "name": "shares",
          "type": "uint256"
        }
      ],
      "name": "previewMint",
      "outputs": [
        {
          "internalType": "uint256",
          "name": "",
          "type": "uint256"
        }
      ],
      "stateMutability": "view",
      "type": "function"
    },
    {
      "inputs": [
        {
          "internalType": "uint256",
          "name": "shares",
          "type": "uint256"
        }
      ],
      "name": "previewRedeem",
      "outputs": [
        {
          "internalType": "uint256",
          "name": "",
          "type": "uint256"
        }
      ],
      "stateMutability": "view",
      "type": "function"
    },
    {
      "inputs": [
        {
          "internalType": "uint256",
          "name": "assets",
          "type": "uint256"
        }
      ],
      "name": "previewWithdraw",
      "outputs": [
        {
          "internalType": "uint256",
          "name": "",
          "type": "uint256"
        }
      ],
      "stateMutability": "view",
      "type": "function"
    },
    {
      "inputs": [
        {
          "internalType": "address",
          "name": "_token",
          "type": "address"
        },
        {
          "internalType": "uint256",
          "name": "_amount",
          "type": "uint256"
        },
        {
          "internalType": "address",
          "name": "_receiver",
          "type": "address"
        }
      ],
      "name": "recoverToken",
      "outputs": [],
      "stateMutability": "nonpayable",
      "type": "function"
    },
    {
      "inputs": [],
      "name": "rewardRouter",
      "outputs": [
        {
          "internalType": "contract IRewardRouterV2Extended",
          "name": "",
          "type": "address"
        }
      ],
      "stateMutability": "view",
      "type": "function"
    },
    {
      "inputs": [
        {
          "internalType": "address",
          "name": "_gov",
          "type": "address"
        }
      ],
      "name": "setGov",
      "outputs": [],
      "stateMutability": "nonpayable",
      "type": "function"
    },
    {
      "inputs": [
        {
          "internalType": "address",
          "name": "_keeper",
          "type": "address"
        }
      ],
      "name": "setKeeper",
      "outputs": [],
      "stateMutability": "nonpayable",
      "type": "function"
    },
    {
      "inputs": [],
      "name": "symbol",
      "outputs": [
        {
          "internalType": "string",
          "name": "",
          "type": "string"
        }
      ],
      "stateMutability": "view",
      "type": "function"
    },
    {
      "inputs": [],
      "name": "totalAssets",
      "outputs": [
        {
          "internalType": "uint256",
          "name": "",
          "type": "uint256"
        }
      ],
      "stateMutability": "view",
      "type": "function"
    },
    {
      "inputs": [],
      "name": "totalCompoundedRewards",
      "outputs": [
        {
          "internalType": "uint256",
          "name": "",
          "type": "uint256"
        }
      ],
      "stateMutability": "view",
      "type": "function"
    },
    {
      "inputs": [],
      "name": "totalSupply",
      "outputs": [
        {
          "internalType": "uint256",
          "name": "",
          "type": "uint256"
        }
      ],
      "stateMutability": "view",
      "type": "function"
    },
    {
      "inputs": [
        {
          "internalType": "address",
          "name": "recipient",
          "type": "address"
        },
        {
          "internalType": "uint256",
          "name": "amount",
          "type": "uint256"
        }
      ],
      "name": "transfer",
      "outputs": [
        {
          "internalType": "bool",
          "name": "",
          "type": "bool"
        }
      ],
      "stateMutability": "nonpayable",
      "type": "function"
    },
    {
      "inputs": [
        {
          "internalType": "address",
          "name": "sender",
          "type": "address"
        },
        {
          "internalType": "address",
          "name": "recipient",
          "type": "address"
        },
        {
          "internalType": "uint256",
          "name": "amount",
          "type": "uint256"
        }
      ],
      "name": "transferFrom",
      "outputs": [
        {
          "internalType": "bool",
          "name": "",
          "type": "bool"
        }
      ],
      "stateMutability": "nonpayable",
      "type": "function"
    },
    {
      "inputs": [
        {
          "internalType": "uint256",
          "name": "shares",
          "type": "uint256"
        },
        {
          "internalType": "uint256",
          "name": "minOut",
          "type": "uint256"
        },
        {
          "internalType": "address",
          "name": "receiver",
          "type": "address"
        }
      ],
      "name": "withdrawS",
      "outputs": [
        {
          "internalType": "uint256",
          "name": "amountOut",
          "type": "uint256"
        }
      ],
      "stateMutability": "nonpayable",
      "type": "function"
    },
    {
      "inputs": [],
      "name": "withdrawalsAvailableAt",
      "outputs": [
        {
          "internalType": "uint256",
          "name": "",
          "type": "uint256"
        }
      ],
      "stateMutability": "view",
      "type": "function"
    },
    {
      "inputs": [],
      "name": "ws",
      "outputs": [
        {
          "internalType": "contract IWETH",
          "name": "",
          "type": "address"
        }
      ],
      "stateMutability": "view",
      "type": "function"
    },
    {
      "stateMutability": "payable",
      "type": "receive"
    }
  ],
  "bytecode": "0x61012060405234801561001157600080fd5b506040516123c93803806123c9833981810160405260a081101561003457600080fd5b5080516020820151604083015160608085015160809586015160016000556001600160601b031995831b861690965292811b841660a05290811b831660c05290811b821660e0529190911b1661010052600480546001600160a01b03199081163390811790925560058054909116909117905560805160601c60a05160601c60c05160601c60e05160601c6101005160601c612298610131600039806113415250806112fd528061177a528061186552508061088d52806115c15280611a2d5250806107ec5280610ae15280610e6052806113ba52806114dd525080610ba652806110fc5280611258528061170552806118e552506122986000f3fe6080604052600436106101b95760003560e01c806301e1d114146101c557806303391476146101ec57806306fdde031461021857806307a2d13a146102a2578063095ea7b3146102cc5780630a28a4771461031957806312d43a511461034357806318160ddd1461037457806322af03421461038957806323b872dd146103ac578063313ce567146103ef57806336b771071461041a57806338d52e0f1461042f578063402d267d146104445780634cdad50614610477578063510a1e98146104a157806352ef2318146104e05780635a3bb989146104f557806370a082311461050a578063748747e61461053d57806383b9010d1461057257806395d89b4114610587578063992daf8b1461059c578063a9059cbb146105b1578063aced1661146105ea578063b3d7f6b9146105ff578063b6d7c51e14610629578063c63d75b614610444578063c6e6f5921461063e578063ce96cb7714610668578063cfad57a21461069b578063d04323c5146106ce578063d905777e14610711578063dd62ed3e14610744578063ef8b30f71461077f578063f2ca8b9e146107a9578063f69e2046146107be578063fa6db1bc146107d3576101c0565b366101c057005b600080fd5b3480156101d157600080fd5b506101da6107e8565b60408051918252519081900360200190f35b3480156101f857600080fd5b506101da6004803603602081101561020f57600080fd5b50351515610889565b34801561022457600080fd5b5061022d610923565b6040805160208082528351818301528351919283929083019185019080838360005b8381101561026757818101518382015260200161024f565b50505050905090810190601f1680156102945780820380516001836020036101000a031916815260200191505b509250505060405180910390f35b3480156102ae57600080fd5b506101da600480360360208110156102c557600080fd5b5035610950565b3480156102d857600080fd5b50610305600480360360408110156102ef57600080fd5b506001600160a01b038135169060200135610986565b604080519115158252519081900360200190f35b34801561032557600080fd5b506101da6004803603602081101561033c57600080fd5b50356109ed565b34801561034f57600080fd5b50610358610a2a565b604080516001600160a01b039092168252519081900360200190f35b34801561038057600080fd5b506101da610a39565b6101da6004803603604081101561039f57600080fd5b5080359060200135610a3f565b3480156103b857600080fd5b50610305600480360360608110156103cf57600080fd5b506001600160a01b03813581169160208101359091169060400135610da2565b3480156103fb57600080fd5b50610404610e53565b6040805160ff9092168252519081900360200190f35b34801561042657600080fd5b506101da610e58565b34801561043b57600080fd5b50610358610e5e565b34801561045057600080fd5b506101da6004803603602081101561046757600080fd5b50356001600160a01b0316610e82565b34801561048357600080fd5b506101da6004803603602081101561049a57600080fd5b5035610e89565b3480156104ad57600080fd5b506101da600480360360608110156104c457600080fd5b50803590602081013590604001356001600160a01b0316610e94565b3480156104ec57600080fd5b506101da611250565b34801561050157600080fd5b50610358611256565b34801561051657600080fd5b506101da6004803603602081101561052d57600080fd5b50356001600160a01b031661127a565b34801561054957600080fd5b506105706004803603602081101561056057600080fd5b50356001600160a01b031661128c565b005b34801561057e57600080fd5b506103586112fb565b34801561059357600080fd5b5061022d61131f565b3480156105a857600080fd5b5061035861133f565b3480156105bd57600080fd5b50610305600480360360408110156105d457600080fd5b506001600160a01b038135169060200135611363565b3480156105f657600080fd5b50610358611379565b34801561060b57600080fd5b506101da6004803603602081101561062257600080fd5b5035611388565b34801561063557600080fd5b506103586113b8565b34801561064a57600080fd5b506101da6004803603602081101561066157600080fd5b50356113dc565b34801561067457600080fd5b506101da6004803603602081101561068b57600080fd5b50356001600160a01b03166113fd565b3480156106a757600080fd5b50610570600480360360208110156106be57600080fd5b50356001600160a01b031661141f565b3480156106da57600080fd5b50610570600480360360608110156106f157600080fd5b506001600160a01b0381358116916020810135916040909101351661148e565b34801561071d57600080fd5b506101da6004803603602081101561073457600080fd5b50356001600160a01b0316611565565b34801561075057600080fd5b506101da6004803603604081101561076757600080fd5b506001600160a01b0381358116916020013516611580565b34801561078b57600080fd5b506101da600480360360208110156107a257600080fd5b503561159d565b3480156107b557600080fd5b506101da6115a8565b3480156107ca57600080fd5b5061057061165a565b3480156107df57600080fd5b50610358611a2b565b60007f00000000000000000000000000000000000000000000000000000000000000006001600160a01b03166370a08231306040518263ffffffff1660e01b815260040180826001600160a01b0316815260200191505060206040518083038186803b15801561085757600080fd5b505afa15801561086b573d6000803e3d6000fd5b505050506040513d602081101561088157600080fd5b505190505b90565b60007f00000000000000000000000000000000000000000000000000000000000000006001600160a01b03166368a0a3e0836040518263ffffffff1660e01b815260040180821515815260200191505060206040518083038186803b1580156108f157600080fd5b505afa158015610905573d6000803e3d6000fd5b505050506040513d602081101561091b57600080fd5b505192915050565b6040518060400160405280601181526020017005969656c642042656172696e6720414c5607c1b81525081565b600154600090801561097d576109788161097261096b6107e8565b8690611a4f565b90611aa8565b61097f565b825b9392505050565b3360008181526003602090815260408083206001600160a01b038716808552908352818420869055815186815291519394909390927f8c5be1e5ebec7d5bd14f71427d1e84f3dd0314c0f7b2291e5b200ac8c7c3b925928290030190a35060015b92915050565b600154600090801561097d57610978610a046107e8565b610972610a1a6001610a146107e8565b90611ae7565b610a248786611a4f565b90611b29565b6004546001600160a01b031681565b60015481565b600060026000541415610a87576040805162461bcd60e51b815260206004820152601f6024820152600080516020612104833981519152604482015290519081900360640190fd5b600260005534610add576040805162461bcd60e51b815260206004820152601c60248201527b165a595b191099585c9a5b99d053140e881e995c9bc8185b5bdd5b9d60221b604482015290519081900360640190fd5b60007f00000000000000000000000000000000000000000000000000000000000000006001600160a01b03166370a08231306040518263ffffffff1660e01b815260040180826001600160a01b0316815260200191505060206040518083038186803b158015610b4c57600080fd5b505afa158015610b60573d6000803e3d6000fd5b505050506040513d6020811015610b7657600080fd5b5051604080516353a8aa0360e01b8152600481018790526024810186905290519192506000916001600160a01b037f000000000000000000000000000000000000000000000000000000000000000016916353a8aa0391349160448082019260209290919082900301818588803b158015610bf057600080fd5b505af1158015610c04573d6000803e3d6000fd5b50505050506040513d6020811015610c1b57600080fd5b5051905080610c70576040805162461bcd60e51b815260206004820152601c60248201527b165a595b191099585c9a5b99d053140e881b5a5b9d0819985a5b195960221b604482015290519081900360640190fd5b600154610c7f57809250610c9b565b610c988261097260015484611a4f90919063ffffffff16565b92505b60008311610cef576040805162461bcd60e51b815260206004820152601c60248201527b5969656c6442656172696e67414c503a207a65726f2073686172657360201b604482015290519081900360640190fd5b600154610cfc9084611b29565b60015533600090815260026020526040902054610d199084611b29565b336000818152600260209081526040808320949094554260075583518781529351929391926000805160206121ac8339815191529281900390910190a360408051828152602081018590528151339283927fdcbc1c05240f31ff3ad067ef1ee35ce4997762752e3a095284754544f4c709d7929081900390910190a35050600160005592915050565b6001600160a01b038316600090815260036020908152604080832033845290915281205482811015610e055760405162461bcd60e51b81526004018080602001828103825260278152602001806120dd6027913960400191505060405180910390fd5b6000198114610e3d57610e188184611ae7565b6001600160a01b03861660009081526003602090815260408083203384529091529020555b610e48858585611b81565b506001949350505050565b601281565b60075481565b7f000000000000000000000000000000000000000000000000000000000000000090565b5060001990565b60006109e782610950565b600060026000541415610edc576040805162461bcd60e51b815260206004820152601f6024820152600080516020612104833981519152604482015290519081900360640190fd5b600260005583610f32576040805162461bcd60e51b815260206004820152601c60248201527b5969656c6442656172696e67414c503a207a65726f2073686172657360201b604482015290519081900360640190fd5b33600090815260026020526040902054841115610f805760405162461bcd60e51b81526004018080602001828103825260258152602001806122146025913960400191505060405180910390fd5b6001600160a01b038216610fdb576040805162461bcd60e51b815260206004820152601e60248201527f5969656c6442656172696e67414c503a207a65726f2072656365697665720000604482015290519081900360640190fd5b610fe36115a8565b421015611037576040805162461bcd60e51b815260206004820181905260248201527f5969656c6442656172696e67414c503a20636f6f6c646f776e20616374697665604482015290519081900360640190fd5b600061104285610950565b905060008111611098576040805162461bcd60e51b815260206004820152601c60248201527b5969656c6442656172696e67414c503a207a65726f2061737365747360201b604482015290519081900360640190fd5b6001546110a59086611ae7565b600155336000908152600260205260409020546110c29086611ae7565b336000818152600260209081526040808320949094558351898152935191936000805160206121ac833981519152929081900390910190a37f00000000000000000000000000000000000000000000000000000000000000006001600160a01b031663abb5e5e28286866040518463ffffffff1660e01b815260040180848152602001838152602001826001600160a01b031681526020019350505050602060405180830381600087803b15801561117957600080fd5b505af115801561118d573d6000803e3d6000fd5b505050506040513d60208110156111a357600080fd5b50519150816111f9576040805162461bcd60e51b815260206004820152601e60248201527f5969656c6442656172696e67414c503a2072656465656d206661696c65640000604482015290519081900360640190fd5b6040805182815260208101879052815133926001600160a01b0387169284927ffbde797d201c681b91056529119e0b02407c7bb96a4a2c75c01fc9667232c8db929181900390910190a45060016000559392505050565b60065481565b7f000000000000000000000000000000000000000000000000000000000000000081565b60026020526000908152604090205481565b6004546001600160a01b031633146112d9576040805162461bcd60e51b815260206004820152601a6024820152600080516020612145833981519152604482015290519081900360640190fd5b600580546001600160a01b0319166001600160a01b0392909216919091179055565b7f000000000000000000000000000000000000000000000000000000000000000081565b60405180604001604052806004815260200163079414c560e41b81525081565b7f000000000000000000000000000000000000000000000000000000000000000081565b6000611370338484611b81565b50600192915050565b6005546001600160a01b031681565b600154600090801561097d57610978816109726113a6826001611ae7565b610a246113b16107e8565b8890611a4f565b7f000000000000000000000000000000000000000000000000000000000000000081565b600154600090801561097d576109786113f36107e8565b6109728584611a4f565b6001600160a01b0381166000908152600260205260408120546109e790610950565b6004546001600160a01b0316331461146c576040805162461bcd60e51b815260206004820152601a6024820152600080516020612145833981519152604482015290519081900360640190fd5b600480546001600160a01b0319166001600160a01b0392909216919091179055565b6004546001600160a01b031633146114db576040805162461bcd60e51b815260206004820152601a6024820152600080516020612145833981519152604482015290519081900360640190fd5b7f00000000000000000000000000000000000000000000000000000000000000006001600160a01b0316836001600160a01b0316141561154c5760405162461bcd60e51b81526004018080602001828103825260258152602001806121ef6025913960400191505060405180910390fd5b6115606001600160a01b0384168284611cfe565b505050565b6001600160a01b031660009081526002602052604090205490565b600360209081526000928352604080842090915290825290205481565b60006109e7826113dc565b6000600754600014156115bd57506000610886565b60007f00000000000000000000000000000000000000000000000000000000000000006001600160a01b031663352693156040518163ffffffff1660e01b815260040160206040518083038186803b15801561161857600080fd5b505afa15801561162c573d6000803e3d6000fd5b505050506040513d602081101561164257600080fd5b50516007549091506116549082611b29565b91505090565b600260005414156116a0576040805162461bcd60e51b815260206004820152601f6024820152600080516020612104833981519152604482015290519081900360640190fd5b60026000556005546001600160a01b03163314611703576040805162461bcd60e51b815260206004820152601c60248201527b2cb4b2b6322132b0b934b733a0a6281d1037b7363c9035b2b2b832b960211b604482015290519081900360640190fd5b7f00000000000000000000000000000000000000000000000000000000000000006001600160a01b0316634e71d92d6040518163ffffffff1660e01b8152600401600060405180830381600087803b15801561175e57600080fd5b505af1158015611772573d6000803e3d6000fd5b5050505060007f00000000000000000000000000000000000000000000000000000000000000006001600160a01b03166370a08231306040518263ffffffff1660e01b815260040180826001600160a01b0316815260200191505060206040518083038186803b1580156117e557600080fd5b505afa1580156117f9573d6000803e3d6000fd5b505050506040513d602081101561180f57600080fd5b5051905080611863576040805162461bcd60e51b815260206004820152601b60248201527a5969656c6442656172696e67414c503a206e6f207265776172647360281b604482015290519081900360640190fd5b7f00000000000000000000000000000000000000000000000000000000000000006001600160a01b0316632e1a7d4d826040518263ffffffff1660e01b815260040180828152602001915050600060405180830381600087803b1580156118c957600080fd5b505af11580156118dd573d6000803e3d6000fd5b5050505060007f00000000000000000000000000000000000000000000000000000000000000006001600160a01b03166353a8aa03836000806040518463ffffffff1660e01b815260040180838152602001828152602001925050506020604051808303818588803b15801561195257600080fd5b505af1158015611966573d6000803e3d6000fd5b50505050506040513d602081101561197d57600080fd5b50519050806119d3576040805162461bcd60e51b815260206004820181905260248201527f5969656c6442656172696e67414c503a20636f6d706f756e64206661696c6564604482015290519081900360640190fd5b6006546119e09082611b29565b60065542600755604080518381526020810183905281517fe3c48e43a3cc80f4a0c194845bdd6091fa19b9bb7d22e515c21e9f177e2e22ae929181900390910190a150506001600055565b7f000000000000000000000000000000000000000000000000000000000000000081565b600082611a5e575060006109e7565b82820282848281611a6b57fe5b041461097f5760405162461bcd60e51b815260040180806020018281038252602181526020018061218b6021913960400191505060405180910390fd5b600061097f83836040518060400160405280601a815260200179536166654d6174683a206469766973696f6e206279207a65726f60301b815250611d50565b600061097f83836040518060400160405280601e81526020017f536166654d6174683a207375627472616374696f6e206f766572666c6f770000815250611df2565b60008282018381101561097f576040805162461bcd60e51b815260206004820152601b60248201527a536166654d6174683a206164646974696f6e206f766572666c6f7760281b604482015290519081900360640190fd5b6001600160a01b038316611bc65760405162461bcd60e51b81526004018080602001828103825260238152602001806121cc6023913960400191505060405180910390fd5b6001600160a01b038216611c0b5760405162461bcd60e51b81526004018080602001828103825260218152602001806121246021913960400191505060405180910390fd5b6001600160a01b038316600090815260026020526040902054811115611c625760405162461bcd60e51b81526004018080602001828103825260258152602001806122146025913960400191505060405180910390fd5b6001600160a01b038316600090815260026020526040902054611c859082611ae7565b6001600160a01b038085166000908152600260205260408082209390935590841681522054611cb49082611b29565b6001600160a01b0380841660008181526002602090815260409182902094909455805185815290519193928716926000805160206121ac83398151915292918290030190a3505050565b604080516001600160a01b038416602482015260448082018490528251808303909101815260649091019091526020810180516001600160e01b031663a9059cbb60e01b179052611560908490611e4c565b60008183611ddc5760405162461bcd60e51b81526004018080602001828103825283818151815260200191508051906020019080838360005b83811015611da1578181015183820152602001611d89565b50505050905090810190601f168015611dce5780820380516001836020036101000a031916815260200191505b509250505060405180910390fd5b506000838581611de857fe5b0495945050505050565b60008184841115611e445760405162461bcd60e51b8152602060048201818152835160248401528351909283926044909101919085019080838360008315611da1578181015183820152602001611d89565b505050900390565b6060611ea1826040518060400160405280602081526020017f5361666545524332303a206c6f772d6c6576656c2063616c6c206661696c6564815250856001600160a01b0316611efd9092919063ffffffff16565b80519091501561156057808060200190516020811015611ec057600080fd5b50516115605760405162461bcd60e51b815260040180806020018281038252602a815260200180612239602a913960400191505060405180910390fd5b6060611f0c8484600085611f14565b949350505050565b606082471015611f555760405162461bcd60e51b81526004018080602001828103825260268152602001806121656026913960400191505060405180910390fd5b611f5e85612070565b611faf576040805162461bcd60e51b815260206004820152601d60248201527f416464726573733a2063616c6c20746f206e6f6e2d636f6e7472616374000000604482015290519081900360640190fd5b60006060866001600160a01b031685876040518082805190602001908083835b60208310611fee5780518252601f199092019160209182019101611fcf565b6001836020036101000a03801982511681845116808217855250505050505090500191505060006040518083038185875af1925050503d8060008114612050576040519150601f19603f3d011682016040523d82523d6000602084013e612055565b606091505b5091509150612065828286612076565b979650505050505050565b3b151590565b6060831561208557508161097f565b8251156120955782518084602001fd5b60405162461bcd60e51b8152602060048201818152845160248401528451859391928392604401919085019080838360008315611da1578181015183820152602001611d8956fe5969656c6442656172696e67414c503a20696e73756666696369656e7420616c6c6f77616e63655265656e7472616e637947756172643a207265656e7472616e742063616c6c005969656c6442656172696e67414c503a207472616e7366657220746f207a65726f5969656c6442656172696e67414c503a20666f7262696464656e000000000000416464726573733a20696e73756666696369656e742062616c616e636520666f722063616c6c536166654d6174683a206d756c7469706c69636174696f6e206f766572666c6f77ddf252ad1be2c89b69c2b068fc378daa952ba7f163c4a11628f55a4df523b3ef5969656c6442656172696e67414c503a207472616e736665722066726f6d207a65726f5969656c6442656172696e67414c503a2063616e6e6f74207265636f766572206673414c505969656c6442656172696e67414c503a20696e73756666696369656e742062616c616e63655361666545524332303a204552433230206f7065726174696f6e20646964206e6f742073756363656564a26469706673582212206af6cc2d3070382d97845bc899810108f4bc768b7e77e84ee4e922c4b8f387a464736f6c634300060c0033",
  "linkReferences": {},
  "deployedLinkReferences": {}
}